:020000040800F2
:1000000000500020290B0008850900088D09000810
:10001000950900089D090008A509000800000000D6
:10002000000000000000000000000000AD09000812
:10003000B909000800000000C5090008D10900083E
:10004000710B0008710B0008710B0008710B0008A0
:10005000710B0008710B0008710B0008710B000890
:10006000710B0008710B0008710B0008710B000880
:10007000710B0008710B0008710B0008710B000870
:10008000710B0008710B0008710B0008710B000860
:10009000710B0008710B0008710B0008710B000850
:1000A000710B0008710B0008710B0008710B000840
:1000B000710B0008710B0008710B0008710B000830
:1000C000710B0008710B0008710B0008710B000820
:1000D000710B0008710B0008710B0008710B000810
:1000E000710B0008710B0008710B00080000000084
:1000F0000000000000000000000000000000000000
:0C01000000000000000000005FF808F1A3
:10010C0010B5054C237833B9044B13B10448AFF345
:10011C0000800123237010BD680000200000000047
:10012C004C35000808B5034B1BB103490348AFF32A
:10013C00008008BD000000006C0000204C35000859
:10014C0081F0004102E000BF83F0004330B54FEA7C
:10015C0041044FEA430594EA050F08BF90EA020FE9
:10016C001FBF54EA000C55EA020C7FEA645C7FEA7C
:10017C00655C00F0E2804FEA5454D4EB5555B8BF9F
:10018C006D420CDD2C4480EA020281EA030382EA10
:10019C00000083EA010180EA020281EA0303362DA2
:1001AC0088BF30BD11F0004F4FEA01314FF4801C75
:1001BC004CEA113102D0404261EB410113F0004F87
:1001CC004FEA03334CEA133302D0524263EB43033E
:1001DC0094EA050F00F0A780A4F10104D5F1200EDC
:1001EC000DDB02FA0EFC22FA05F2801841F1000137
:1001FC0003FA0EF2801843FA05F359410EE0A5F10B
:10020C0020050EF1200E012A03FA0EFC28BF4CF03B
:10021C00020C43FA05F3C01851EBE37101F00045F1
:10022C0007D54FF0000EDCF1000C7EEB00006EEBFE
:10023C000101B1F5801F1BD3B1F5001F0CD3490888
:10024C005FEA30004FEA3C0C04F101044FEA4452DF
:10025C0012F5800F80F09A80BCF1004F08BF5FEA66
:10026C00500C50F1000041EB045141EA050130BD46
:10027C005FEA4C0C404141EB0101013C28BFB1F558
:10028C00801FE9D291F0000F04BF01460020B1FAA3
:10029C0081F308BF2033A3F10B03B3F120020CDA76
:1002AC000C3208DD02F1140CC2F10C0201FA0CF054
:1002BC0021FA02F10CE002F11402D8BFC2F1200CB9
:1002CC0001FA02F120FA0CFCDCBF41EA0C0190406F
:1002DC00E41AA2BF01EB0451294330BD6FEA0404B8
:1002EC001F3C1CDA0C340EDC04F11404C4F12002A3
:1002FC0020FA04F001FA02F340EA030021FA04F3B5
:10030C0045EA030130BDC4F10C04C4F1200220FA0B
:10031C0002F001FA04F340EA0300294630BD21FA49
:10032C0004F0294630BD94F0000F83F4801306BF0F
:10033C0081F480110134013D4EE77FEA645C18BF03
:10034C007FEA655C29D094EA050F08BF90EA020F9A
:10035C0005D054EA000C04BF1946104630BD91EA92
:10036C00030F1EBF0021002030BD5FEA545C05D195
:10037C004000494128BF41F0004130BD14F58004D4
:10038C003CBF01F5801130BD01F0004545F0FE4148
:10039C0041F470014FF0000030BD7FEA645C1ABF7D
:1003AC00194610467FEA655C1CBF0B46024650EAB4
:1003BC00013406BF52EA033591EA030F41F40021E0
:1003CC0030BD00BF90F0000F04BF0021704730B566
:1003DC004FF4806404F132044FF000054FF000013B
:1003EC0050E700BF90F0000F04BF0021704730B5FC
:1003FC004FF4806404F1320410F0004548BF4042D1
:10040C004FF000013EE700BF42004FEAE2014FEA25
:10041C0031014FEA02701FBF12F07F4393F07F4F00
:10042C0081F06051704732F07F4208BF704793F003
:10043C007F4F04BF41F40021704730B54FF4607416
:10044C0001F0004521F000411CE700BF50EA010219
:10045C0008BF704730B54FF000050AE050EA0102C2
:10046C0008BF704730B511F0004502D5404261EB32
:10047C0041014FF4806404F132045FEA915C3FF473
:10048C00D8AE4FF003025FEADC0C18BF03325FEA10
:10049C00DC0C18BF033202EBDC02C2F1200300FAC1
:1004AC0003FC20FA02F001FA03FE40EA0E0021FAE6
:1004BC0002F11444BDE600BF80B58EB000AF00F071
:1004CC0053FB00F01FF800F00FF900F077F800F084
:1004DC00B3F800F0DFF84FF000037B63786BFFF7A5
:1004EC0093FF02460B463846044901F0EDFF3B46AC
:1004FC001946034801F0D6FF00BFEFE7643500084A
:10050C007435000880B594B000AF07F12803282299
:10051C000021184602F03BF807F1140300221A6080
:10052C005A609A60DA601A613B1D00221A605A60A8
:10053C009A60DA600123BB624FF48033FB620023C4
:10054C003B630123BB6302237B644FF48033BB64A6
:10055C004FF4E013FB6407F12803184601F03CF953
:10056C000346002B01D000F009F90F237B61022315
:10057C00BB610023FB614FF480633B6200237B6211
:10058C0007F114030221184601F0A8FB0346002BC7
:10059C0001D000F0F3F802237B604FF40043FB60C2
:1005AC003B1D184601F028FD0346002B01D000F03E
:1005BC00E5F800BF5037BD4680BD000080B584B063
:1005CC0000AF3B1D00221A605A609A60184B194A02
:1005DC001A60174B00229A60154B00221A73144BA9
:1005EC0000221A75124B4FF46022DA61104B002274
:1005FC005A600F4B01221A610D4800F017FB03469D
:10060C00002B01D000F0BAF810237B600123BB60F3
:10061C000023FB603B1D1946054800F0DFFB034639
:10062C00002B01D000F0AAF800BF1037BD4680BDEA
:10063C00840000200024014080B500AF124B134A07
:10064C001A60114B124A5A600F4B00229A600E4BE3
:10065C000022DA600C4B4FF480421A610A4B0022E4
:10066C005A61094B00229A61074B0022DA61064B52
:10067C0000221A62044800F06BFF0346002B01D0E5
:10068C0000F07CF800BF80BDB40000200054004096
:10069C00A086010080B500AF114B124A1A60104BB6
:1006AC004FF4E1325A600E4B00229A600C4B002240
:1006BC00DA600B4B00221A61094B0C225A61084B71
:1006CC0000229A61064B0022DA61054801F04AFDCE
:1006DC000346002B01D000F051F800BF80BD00BFD5
:1006EC00080100200038014080B588B000AF07F148
:1006FC00100300221A605A609A60DA601D4B9B69E5
:10070C001C4A43F0200393611A4B9B6903F02003AE
:10071C00FB60FB68174B9B69164A43F0040393611B
:10072C00144B9B6903F00403BB60BB68114B9B69C2
:10073C00104A43F0080393610E4B9B6903F00803C6
:10074C007B607B68002204210B4800F0E9FE042347
:10075C003B6101237B610023BB610223FB6107F139
:10076C0010031946044800F057FD00BF2037BD4662
:10077C0080BD00BF001002400008014080B400AFF3
:10078C0072B600BF00BFFDE780B485B000AF154B5B
:10079C009B69144A43F001039361124B9B6903F06C
:1007AC000103BB60BB680F4BDB690E4A43F08053FF
:1007BC00D3610C4BDB6903F080537B607B680A4B85
:1007CC005B68FB60FB6823F0E063FB60FB6843F055
:1007DC008063FB60044AFB68536000BF1437BD465E
:1007EC0080BC7047001002400000014080B588B00A
:1007FC0000AF786007F1100300221A605A609A600B
:10080C00DA607B681B68144A934221D1134B9B69B5
:10081C00124A43F400739361104B9B6903F4007309
:10082C00FB60FB680D4B9B690C4A43F0040393611E
:10083C000A4B9B6903F00403BB60BB6801233B615B
:10084C0003237B6107F110031946054800F0E4FC13
:10085C0000BF2037BD4680BD00240140001002407F
:10086C000008014080B588B000AF786007F1100334
:10087C0000221A605A609A60DA607B681B68154A1D
:10088C00934223D1144B9B69134A43F008039361A1
:10089C00114B9B6903F00803FB60FB68C0233B61B1
:1008AC0012237B610323FB6107F1100319460B48EC
:1008BC0000F0B2FC084BDB69074A43F40013D36128
:1008CC00054BDB6903F40013BB60BB6800BF20372A
:1008DC00BD4680BD0054004000100240000C014099
:1008EC0080B588B000AF786007F1100300221A6061
:1008FC005A609A60DA607B681B681C4A934231D15B
:10090C001B4B9B691A4A43F480439361184B9B69B8
:10091C0003F48043FB60FB68154B9B69144A43F05E
:10092C0004039361124B9B6903F00403BB60BB6827
:10093C004FF400733B6102237B610323FB6107F1DE
:10094C00100319460B4800F067FC4FF480633B61C1
:10095C0000237B610023BB6107F110031946054896
:10096C0000F05AFC00BF2037BD4680BD0038014066
:10097C00001002400008014080B400AF00BFFDE74A
:10098C0080B400AF00BFFDE780B400AF00BFFDE74F
:10099C0080B400AF00BFFDE780B400AF00BFFDE73F
:1009AC0080B400AF00BFBD4680BC704780B400AFC0
:1009BC0000BFBD4680BC704780B400AF00BFBD46D1
:1009CC0080BC704780B500AF00F014F900BF80BD4B
:1009DC0080B586B000AFF860B9607A6000237B61A7
:1009EC000AE0AFF300800146BB685A1CBA60CAB279
:1009FC001A707B6901337B617A697B689A42F0DB00
:100A0C007B6818461837BD4680BD80B586B000AFF0
:100A1C00F860B9607A6000237B6109E0BB685A1CFE
:100A2C00BA601B781846AFF300807B6901337B6199
:100A3C007A697B689A42F1DB7B6818461837BD46A9
:100A4C0080BD80B483B000AF78604FF0FF331846A0
:100A5C000C37BD4680BC704780B483B000AF786063
:100A6C0039603B684FF400525A60002318460C372B
:100A7C00BD4680BC704780B483B000AF7860012362
:100A8C0018460C37BD4680BC704780B485B000AFAB
:100A9C00F860B9607A60002318461437BD4680BCF4
:100AAC007047000080B586B000AF7860144A154BD3
:100ABC00D31A7B617B693B61134B1B68002B02D102
:100ACC00114B124A1A60104B1A687B6813443A692E
:100ADC009A4207D201F0AAFD03460C221A604FF08D
:100AEC00FF3309E0084B1B68FB60074B1A687B68F7
:100AFC001344054A1360FB6818461837BD4680BD81
:100B0C00005000200004000050010020A80200202A
:100B1C0080B400AF00BFBD4680BC7047FFF7F8FF44
:100B2C000B480C490C4A002302E0D458C45004333F
:100B3C00C4188C42F9D3094A094C002301E0136014
:100B4C000432A242FBD301F077FDFFF7B5FC7047EE
:100B5C000000002068000020E0350008680000203C
:100B6C00A4020020FEE7000080B500AF084B1B6814
:100B7C00074A43F010031360032000F019FB0F2009
:100B8C0000F008F8FFF700FE0023184680BD00BFF8
:100B9C000020024080B582B000AF7860124B1A681A
:100BAC00124B1B7819464FF47A73B3FBF1F3B2FB7B
:100BBC00F3F3184600F023FB0346002B01D001236E
:100BCC000EE07B680F2B0AD8002279684FF0FF30BB
:100BDC0000F0F9FA064A7B681360002300E0012359
:100BEC0018460837BD4680BD0000002008000020D4
:100BFC000400002080B400AF054B1B781A46054B4F
:100C0C001B681344034A136000BFBD4680BC704789
:100C1C00080000205401002080B400AF024B1B6878
:100C2C001846BD4680BC70475401002080B586B084
:100C3C0000AF78600023FB7500233B610023BB6091
:100C4C000023FB607B68002B01D10123BEE07B6895
:100C5C009B68002B7B689B6A002B09D17B68002268
:100C6C00DA627B68002283F824207868FFF7BEFDE7
:100C7C00786800F0ABF90346FB757B689B6A03F060
:100C8C001003002B40F09980FB7D002B40F09580E9
:100C9C007B689B6A23F4885323F0020343F002021F
:100CAC007B689A627B685A687B68DB691A437B684D
:100CBC001B7B5B001343BA681343BB607B689B6868
:100CCC00B3F5807F03D07B689B68012B02D14FF476
:100CDC00807300E000233A6913433B617B681B7D02
:100CEC00012B19D17B681B7B002B09D17B689B697D
:100CFC00013B5A033B69134343F400633B610BE034
:100D0C007B689B6A43F020027B689A627B68DB6A93
:100D1C0043F001027B68DA627B681B685B6823F432
:100D2C0069417B681B683A690A435A607B681B6897
:100D3C009A68284B13407A681268B9680B43936021
:100D4C007B689B68B3F5807F03D07B689B68012B25
:100D5C0004D17B681B69013B1B05FB607B681B682E
:100D6C00DB6A23F470017B681B68FA680A43DA6259
:100D7C007B681B689A68184B1340BA689A420BD16F
:100D8C007B680022DA627B689B6A23F0030343F0E2
:100D9C0001027B689A6218E07B689B6A23F012035D
:100DAC0043F010027B689A627B68DB6A43F00102B5
:100DBC007B68DA620123FB7507E07B689B6A43F072
:100DCC0010027B689A620123FB75FB7D184618376D
:100DDC00BD4680BDFDF7E1FFFE0E1FFF80B485B060
:100DEC0000AF786039600023FB730023BB607B6825
:100DFC0093F82430012B01D10223DCE07B68012223
:100E0C0083F824203B685B68062B1CD87B681B6826
:100E1C00596B3B685A6813469B001344053B1F22D1
:100E2C0002FA03F3DB4319403B6818683B685A68C5
:100E3C0013469B001344053B00FA03F27B681B68C6
:100E4C000A435A633CE03B685B680C2B1CD87B68FC
:100E5C001B68196B3B685A6813469B001344233B71
:100E6C001F2202FA03F3DB4319403B6818683B6806
:100E7C005A6813469B001344233B00FA03F27B6829
:100E8C001B680A431A631BE07B681B68D96A3B68C2
:100E9C005A6813469B001344413B1F2202FA03F38A
:100EAC00DB4319403B6818683B685A6813469B0043
:100EBC001344413B00FA03F27B681B680A43DA6275
:100ECC003B681B68092B1CD97B681B68D9683B687D
:100EDC001A6813465B0013441E3B072202FA03F305
:100EEC00DB4319403B6898683B681A6813465B0003
:100EFC0013441E3B00FA03F27B681B680A43DA605A
:100F0C0019E07B681B6819693B681A6813465B001B
:100F1C001344072202FA03F3DB4319403B68986839
:100F2C003B681A6813465B00134400FA03F27B68B3
:100F3C001B680A431A613B681B68102B03D03B6883
:100F4C001B68112B32D17B681B681D4A934225D13B
:100F5C007B681B689B6803F40003002B26D17B681D
:100F6C001B689A687B681B6842F400029A603B68B5
:100F7C001B68102B1AD1134B1B68134AA2FB0323BB
:100F8C009A0C13469B0013445B00BB6002E0BB68E9
:100F9C00013BBB60BB68002BF9D107E07B689B6A07
:100FAC0043F020027B689A620123FB737B6800226A
:100FBC0083F82420FB7B18461437BD4680BC704751
:100FCC00002401400000002083DE1B4380B584B068
:100FDC0000AF78600023FB607B681B689B6803F0A4
:100FEC000103012B2ED17B681B689A687B681B68F8
:100FFC0022F001029A60FFF70FFEF8601BE0FFF78A
:10100C000BFE0246FB68D31A022B14D97B681B68B3
:10101C009B6803F00103012B0DD17B689B6A43F0A5
:10102C0010027B689A627B68DB6A43F001027B6882
:10103C00DA62012307E07B681B689B6803F00103FD
:10104C00012BDCD0002318461037BD4680BD0000B4
:10105C0080B485B000AF78607B6803F00703FB6059
:10106C000C4BDB68BB60BA684FF6FF031340BB60E8
:10107C00FB681A02BB68134343F0BF6343F40033AD
:10108C00BB60044ABB68D36000BF1437BD4680BC4C
:10109C00704700BF00ED00E080B400AF044BDB688C
:1010AC001B0A03F007031846BD4680BC704700BFFF
:1010BC0000ED00E080B483B000AF03463960FB71F3
:1010CC0097F90730002B0ADB3B68DAB20C4997F929
:1010DC0007301201D2B20B4483F800230AE03B68BC
:1010EC00DAB20849FB7903F00F03043B1201D2B2C8
:1010FC000B441A7600BF0C37BD4680BC704700BF4E
:10110C0000E100E000ED00E080B489B000AFF860D1
:10111C00B9607A60FB6803F00703FB61FB69C3F1FC
:10112C000703042B28BF0423BB61FB690433062B84
:10113C0002D9FB69033B00E000237B614FF0FF32D7
:10114C00BB6902FA03F3DA43BB681A407B699A4025
:10115C004FF0FF317B6901FA03F3D9437B680B40F5
:10116C00134318462437BD4680BC704780B582B007
:10117C0000AF78607B68013BB3F1807F01D3012322
:10118C000FE00A4A7B68013B53600F214FF0FF30A0
:10119C00FFF790FF054B00229A60044B07221A6060
:1011AC00002318460837BD4680BD00BF10E000E0A4
:1011BC0080B582B000AF78607868FFF749FF00BF58
:1011CC000837BD4680BD80B586B000AF0346B96018
:1011DC007A60FB7300237B61FFF75EFF78617A68AE
:1011EC00B9687869FFF790FF024697F90F301146FE
:1011FC001846FFF75FFF00BF1837BD4680BD80B5AE
:10120C0082B000AF78607868FFF7B0FF03461846ED
:10121C000837BD4680BD000080B48BB000AF78604D
:10122C00396000237B6200233B6269E101227B6A07
:10123C0002FA03F3FB613B681B68FA691340BB615C
:10124C00BA69FB699A4240F058813B685B689A4ADC
:10125C0093425ED0984A934275D8984A934258D09C
:10126C00964A93426FD8964A934252D0944A9342EC
:10127C0069D8944A93424CD0924A934263D8924A8A
:10128C00934246D0904A93425DD8122B2AD8122B07
:10129C0059D801A252F823F01F130008F9120008C4
:1012AC000B1300084D1300085313000853130008C8
:1012BC00531300085313000853130008531300086A
:1012CC00531300085313000853130008531300085A
:1012DC00531300085313000853130008011300089C
:1012EC0015130008794A934213D02CE03B68DB6855
:1012FC003B6229E03B68DB6804333B6224E03B68DB
:10130C00DB6808333B621FE03B68DB680C333B62F5
:10131C001AE03B689B68002B02D104233B6213E06C
:10132C003B689B68012B05D108233B627B68FA69FB
:10133C001A6109E008233B627B68FA695A6103E091
:10134C0000233B6200E000BFBB69FF2B01D87B6828
:10135C0001E07B6804337B61BB69FF2B02D87B6A9D
:10136C009B0002E07B6A083B9B003B617B691A682F
:10137C000F213B6901FA03F3DB431A40396A3B69DD
:10138C0001FA03F31A437B691A603B685B6803F04C
:10139C008053002B00F0B1804D4B9B694C4A43F0BD
:1013AC00010393614A4B9B6903F00103BB60BB686B
:1013BC00484A7B6A9B08023352F82330FB607B6AF5
:1013CC0003F003039B000F2202FA03F3DB43FA68DA
:1013DC001340FB607B68404A934213D07B683F4AC2
:1013EC0093420DD07B683E4A934207D07B683D4ABE
:1013FC00934201D1032306E0042304E0022302E01C
:10140C00012300E000237A6A02F003029200934069
:10141C00FA681343FB602F497B6A9B080233FA6816
:10142C0041F823203B685B6803F48013002B06D043
:10143C002D4B9A682C49BB6913438B6006E02A4BF1
:10144C009A68BB69DB43284913408B603B685B6837
:10145C0003F40013002B06D0234BDA682249BB6936
:10146C001343CB6006E0204BDA68BB69DB431E49B3
:10147C001340CB603B685B6803F40033002B06D051
:10148C00194B5A681849BB6913434B6006E0164B5D
:10149C005A68BB69DB43144913404B603B685B687B
:1014AC0003F48033002B21D00F4B1A680E49BB6913
:1014BC0013430B6021E000BF00003210000031101C
:1014CC00000022100000211000001210000011106A
:1014DC00001002400000014000080140000C0140D7
:1014EC000010014000140140000401400B4B1A682D
:1014FC00BB69DB43094913400B607B6A01337B6298
:10150C003B681A687B6A22FA03F3002B7FF48EAED9
:10151C0000BF00BF2C37BD4680BC704700040140A3
:10152C0080B483B000AF78600B467B8013467B7031
:10153C007B78002B03D07A887B681A6103E07B8868
:10154C001A047B681A6100BF0C37BD4680BC70471B
:10155C0080B584B000AF78607B68002B01D101238B
:10156C002BE17B6893F83D30DBB2002B06D17B6816
:10157C00002283F83C207868FFF774F97B682422FA
:10158C0083F83D207B681B681A687B681B6822F017
:10159C0001021A607B681B681A687B681B6842F43E
:1015AC0000421A607B681B681A687B681B6822F40F
:1015BC0000421A6000F0DAFCF8607B685B68814AD4
:1015CC00934207D8FB68804A934294BF01230023BF
:1015DC00DBB206E0FB687D4A934294BF01230023F3
:1015EC00DBB2002B01D00123E7E0FB68784AA2FBB9
:1015FC0003239B0CBB607B681B685B6823F03F017B
:10160C007B681B68BA680A435A607B681B681B6A54
:10161C0023F03F017B685B686A4A934202D8BB683F
:10162C00013309E0BB684FF4967202FB03F3694A7D
:10163C00A2FB03239B0901337A6812680B431362E4
:10164C007B681B68DB6923F44F4222F0FF027B6846
:10165C005B685C498B4219D8FB68591E7B685B68D8
:10166C005B00B1FBF3F3591C40F6FC730B40002BF1
:10167C000AD0FB68591E7B685B685B00B1FBF3F317
:10168C000133C3F30B0351E004234FE07B689B68E9
:10169C00002B11D1FB68581E7B6859680B465B0008
:1016AC000B44B0FBF3F30133C3F30B03002B0CBF60
:1016BC0001230023DBB212E0FB68581E7B685968DB
:1016CC000B469B000B4499000B44B0FBF3F3013326
:1016DC00C3F30B03002B0CBF01230023DBB2002B45
:1016EC0001D0012322E07B689B68002B0ED1FB68A4
:1016FC00581E7B6859680B465B000B44B0FBF3F338
:10170C000133C3F30B0343F400430FE0FB68581E93
:10171C007B6859680B469B000B4499000B44B0FB4B
:10172C00F3F30133C3F30B0343F4404379680968C3
:10173C001343CB617B681B681B6823F0C0017B687B
:10174C00DA697B681B6A1A437B681B680A431A6058
:10175C007B681B689B6823F4034323F0FF037A68C0
:10176C0011697A68D26811437A6812680B439360E6
:10177C007B681B68DB6823F0FF017B685A697B6818
:10178C009B691A437B681B680A43DA607B681B6899
:10179C001A687B681B6842F001021A607B680022A1
:1017AC001A647B68202283F83D207B6800221A6330
:1017BC007B68002283F83E20002318461037BD4674
:1017CC0080BD00BFA08601007F841E00FF083D0085
:1017DC0083DE1B43D34D621080B586B000AF7860BA
:1017EC007B68002B01D1012372E27B681B6803F03C
:1017FC000103002B00F08780924B5B6803F00C0315
:10180C00042B0CD08F4B5B6803F00C03082B12D10C
:10181C008C4B5B6803F48033B3F5803F0BD1894B61
:10182C001B6803F40033002B6CD07B685B68002BC7
:10183C0068D101234CE27B685B68B3F5803F06D12D
:10184C00804B1B687F4A43F4803313602EE07B6827
:10185C005B68002B0CD17B4B1B687A4A23F48033DA
:10186C001360784B1B68774A23F4802313601DE0C8
:10187C007B685B68B3F5A02F0CD1724B1B68714A67
:10188C0043F4802313606F4B1B686E4A43F4803320
:10189C0013600BE06B4B1B686A4A23F480331360B4
:1018AC00684B1B68674A23F4802313607B685B6872
:1018BC00002B13D0FFF7B0F9386108E0FFF7ACF953
:1018CC0002463B69D31A642B01D9032300E25D4B1A
:1018DC001B6803F40033002BF0D014E0FFF79CF9E5
:1018EC00386108E0FFF798F902463B69D31A642B7C
:1018FC0001D90323ECE1534B1B6803F40033002B99
:10190C00F0D100E000BF7B681B6803F00203002BE2
:10191C0063D04C4B5B6803F00C03002B0BD0494B92
:10192C005B6803F00C03082B1CD1464B5B6803F47B
:10193C008033002B16D1434B1B6803F00203002BA2
:10194C0005D07B681B69012B01D00123C0E13D4B05
:10195C001B6823F0F8027B685B69DB003949134391
:10196C000B603AE07B681B69002B20D0364B0122C0
:10197C001A60FFF751F9386108E0FFF74DF902469C
:10198C003B69D31A022B01D90323A1E12D4B1B6810
:10199C0003F00203002BF0D02A4B1B6823F0F80253
:1019AC007B685B69DB00274913430B6015E0264B12
:1019BC0000221A60FFF730F9386108E0FFF72CF9C4
:1019CC0002463B69D31A022B01D9032380E11D4B3C
:1019DC001B6803F00203002BF0D17B681B6803F03B
:1019EC000803002B3AD07B689B69002B19D0174B4E
:1019FC0001221A60FFF710F9386108E0FFF70CF9C3
:101A0C0002463B69D31A022B01D9032360E10D4B2B
:101A1C005B6A03F00203002BF0D0012000F0CEFA39
:101A2C001CE00A4B00221A60FFF7F6F838610FE051
:101A3C00FFF7F2F802463B69D31A022B08D90323AD
:101A4C0046E100BF001002400000424280044242C6
:101A5C00924B5B6A03F00203002BE9D17B681B6895
:101A6C0003F00403002B00F0A6800023FB758B4BC6
:101A7C00DB6903F08053002B0DD1884BDB69874A5F
:101A8C0043F08053D361854BDB6903F08053BB601B
:101A9C00BB680123FB75824B1B6803F48073002B1E
:101AAC0018D17F4B1B687E4A43F480731360FFF799
:101ABC00B3F8386108E0FFF7AFF802463B69D31A78
:101ACC00642B01D9032303E1754B1B6803F480736A
:101ADC00002BF0D07B68DB68012B06D16F4B1B6AA7
:101AEC006E4A43F0010313622DE07B68DB68002B28
:101AFC000CD16A4B1B6A694A23F001031362674BD2
:101B0C001B6A664A23F0040313621CE07B68DB68E3
:101B1C00052B0CD1614B1B6A604A43F00403136222
:101B2C005E4B1B6A5D4A43F0010313620BE05B4B97
:101B3C001B6A5A4A23F001031362584B1B6A574A1B
:101B4C0023F0040313627B68DB68002B15D0FFF7CE
:101B5C0063F838610AE0FFF75FF802463B69D31A75
:101B6C0041F28832934201D90323B1E04B4B1B6AFB
:101B7C0003F00203002BEED014E0FFF74DF83861B0
:101B8C000AE0FFF749F802463B69D31A41F2883262
:101B9C00934201D903239BE0404B1B6A03F00203E1
:101BAC00002BEED1FB7D012B05D13C4BDB693B4A75
:101BBC0023F08053D3617B68DB69002B00F08780B6
:101BCC00364B5B6803F00C03082B61D07B68DB6938
:101BDC00022B46D1334B00221A60FFF71DF83861F7
:101BEC0008E0FFF719F802463B69D31A022B01D91A
:101BFC0003236DE0294B1B6803F00073002BF0D11D
:101C0C007B681B6AB3F5803F08D1244B5B6823F4D7
:101C1C0000327B689B68214913434B601F4B5B6808
:101C2C0023F474127B68196A7B685B6A0B431B494B
:101C3C0013434B601B4B01221A60FEF7EDFF38611A
:101C4C0008E0FEF7E9FF02463B69D31A022B01D9E3
:101C5C0003233DE0114B1B6803F00073002BF0D005
:101C6C0035E0104B00221A60FEF7D6FF386108E011
:101C7C00FEF7D2FF02463B69D31A022B01D903238C
:101C8C0026E0064B1B6803F00073002BF0D11EE01E
:101C9C007B68DB69012B07D1012319E0001002409E
:101CAC0000700040600042420B4B5B68FB60FB68BD
:101CBC0003F480327B681B6A9A4206D1FB6803F4FA
:101CCC0070127B685B6A9A4201D0012300E000230A
:101CDC0018461837BD4680BD0010024080B584B050
:101CEC0000AF786039607B68002B01D10123D0E014
:101CFC006A4B1B6803F007033A689A4210D9674B8A
:101D0C001B6823F0070265493B6813430B60634B68
:101D1C001B6803F007033A689A4201D00123B8E02C
:101D2C007B681B6803F00203002B20D07B681B68C8
:101D3C0003F00403002B05D0594B5B68584A43F45D
:101D4C00E06353607B681B6803F00803002B05D02D
:101D5C00534B5B68524A43F460535360504B5B687F
:101D6C0023F0F0027B689B684D4913434B607B6802
:101D7C001B6803F00103002B40D07B685B68012BD0
:101D8C0007D1474B1B6803F40033002B15D10123FB
:101D9C007FE07B685B68022B07D1414B1B6803F02B
:101DAC000073002B09D1012373E03D4B1B6803F03A
:101DBC000203002B01D101236BE0394B5B6823F04C
:101DCC0003027B685B68364913434B60FEF724FFC4
:101DDC00F8600AE0FEF720FF0246FB68D31A41F2D6
:101DEC008832934201D9032353E02D4B5B6803F0F7
:101DFC000C027B685B689B009A42EBD1274B1B68FB
:101E0C0003F007033A689A4210D2244B1B6823F064
:101E1C00070222493B6813430B60204B1B6803F0FD
:101E2C0007033A689A4201D0012332E07B681B68B1
:101E3C0003F00403002B08D0194B5B6823F4E06219
:101E4C007B68DB68164913434B607B681B6803F0A7
:101E5C000803002B09D0124B5B6823F460527B689B
:101E6C001B69DB000E4913434B6000F021F802465E
:101E7C000B4B5B681B0903F00F030A49CB5C22FA7E
:101E8C0003F3094A1360094B1B681846FEF782FEE0
:101E9C00002318461037BD4680BD00BF002002400D
:101EAC0000100240783500080000002004000020DB
:101EBC0080B487B000AF0023FB600023BB6000231D
:101ECC007B6100237B6000233B611E4B5B68FB60E6
:101EDC00FB6803F00C03042B02D0082B03D027E083
:101EEC00194B3B6127E0FB689B0C03F00F03174A6F
:101EFC00D35C7B60FB6803F48033002B10D0114B58
:101F0C005B685B0C03F00103114AD35CBB607B681C
:101F1C000D4A03FB02F2BB68B2FBF3F37B6104E0F6
:101F2C007B680C4A02FB03F37B617B693B6102E03B
:101F3C00054B3B6100BF3B6918461C37BD4680BC56
:101F4C00704700BF0010024000127A009035000864
:101F5C00A035000800093D0080B400AF024B1B689F
:101F6C001846BD4680BC70470000002080B500AF0D
:101F7C00FFF7F2FF0246054B5B681B0A03F00703F1
:101F8C000349CB5C22FA03F3184680BD00100240D3
:101F9C008835000880B500AFFFF7DEFF0246054B21
:101FAC005B68DB0A03F007030349CB5C22FA03F3FB
:101FBC00184680BD001002408835000880B485B0FA
:101FCC0000AF78600A4B1B680A4AA2FB03235B0A2A
:101FDC007A6802FB03F3FB6000BFFB685A1EFA60D1
:101FEC00002BF9D100BF00BF1437BD4680BC704731
:101FFC0000000020D34D621080B586B000AF786031
:10200C0000233B610023FB607B681B6803F001032A
:10201C00002B7DD00023FB754F4BDB6903F0805305
:10202C00002B0DD14C4BDB694B4A43F08053D361F1
:10203C00494BDB6903F08053BB60BB680123FB7524
:10204C00464B1B6803F48073002B18D1434B1B6861
:10205C00424A43F480731360FEF7DEFD386108E0FA
:10206C00FEF7DAFD02463B69D31A642B01D9032330
:10207C006DE03A4B1B6803F48073002BF0D0364BA9
:10208C001B6A03F44073FB60FB68002B2ED07B684B
:10209C005B6803F44073FA689A4227D02E4B1B6A94
:1020AC0023F44073FB602E4B01221A602C4B002250
:1020BC001A60294AFB681362FB6803F00103002BCA
:1020CC0014D0FEF7A9FD38610AE0FEF7A5FD024623
:1020DC003B69D31A41F28832934201D9032336E08B
:1020EC001D4B1B6A03F00203002BEED01A4B1B6A2C
:1020FC0023F440727B685B68174913430B62FB7DCA
:10210C00012B05D1144BDB69134A23F08053D361A7
:10211C007B681B6803F00203002B08D00E4B5B6836
:10212C0023F440427B689B680B4913434B607B68EC
:10213C001B6803F01003002B08D0074B5B6823F4DB
:10214C0080027B68DB68044913434B60002318460C
:10215C001837BD4680BD00BF001002400070004023
:10216C004004424280B582B000AF78607B68002B9F
:10217C0001D1012342E07B6893F84130DBB2002BA4
:10218C0006D17B68002283F840207868FEF7A8FB14
:10219C007B68242283F841207B681B68DA687B68A3
:1021AC001B6822F40052DA60786800F02BF87B6828
:1021BC001B681A697B681B6822F490421A617B6861
:1021CC001B685A697B681B6822F02A025A617B687B
:1021DC001B68DA687B681B6842F40052DA607B6823
:1021EC0000225A647B68202283F841207B682022DD
:1021FC0083F842207B6800225A6300231846083774
:10220C00BD4680BD80B584B000AF78607B681B682C
:10221C001B6923F440517B68DA687B681B680A43AE
:10222C001A617B689A687B681B691A437B685B69D7
:10223C001343BB607B681B68DB6823F4B05323F04B
:10224C000C037A681268B9680B43D3607B681B680F
:10225C005B6923F440717B689A697B681B680A434D
:10226C005A617B681B682C4A934203D1FFF792FE9C
:10227C00F86002E0FFF77AFEF860FA6813469B00FC
:10228C0013449A001A447B685B689B00B2FBF3F31F
:10229C00224AA2FB03235B091901FA6813469B002F
:1022AC0013449A001A447B685B689B00B2FBF3F200
:1022BC001A4BA3FB02035B09642000FB03F3D31A44
:1022CC001B013233154AA2FB03235B0903F0F00315
:1022DC001944FA6813469B0013449A001A447B680D
:1022EC005B689B00B2FBF3F20C4BA3FB02035B0994
:1022FC00642000FB03F3D31A1B013233074AA2FB01
:10230C0003235B0903F00F027B681B680A449A6085
:10231C0000BF1037BD4680BD003801401F85EB5112
:10232C00002310B50446C0E90033C0E904338360D0
:10233C0081814366C2818361194608225C3000F0BA
:10234C0026F90D4B246263620C4BA3620C4BE362C7
:10235C000C4B23630C4B9C4206D003F16802944255
:10236C0002D0D0339C4205D104F15800BDE8104096
:10237C0000F086B910BD00BF1525000837250008F0
:10238C006F2500089325000858010020024A0349D4
:10239C00034800F069B800BF0C000020D5310008DC
:1023AC001C00002041680C4B10B59942044601D02A
:1023BC0000F00AFFA168094B994202D0204600F0B8
:1023CC0003FFE168064B994204D02046BDE810405B
:1023DC0000F0FABE10BD00BF58010020C001002063
:1023EC002802002010B50B4B0B4C0C4A20461A60EF
:1023FC0004210022FFF794FF04F168000122092157
:10240C00FFF78EFF04F1D0000222BDE8104012212C
:10241C00FFF786BF90020020580100209923000886
:10242C00014800F02EB900BF99020020014800F0CD
:10243C0029B900BF9902002010B50446FFF7F0FF40
:10244C00236A1BB1BDE81040FFF7F0BF044B2362B9
:10245C00044B1B68002BF5D1FFF7C4FFF2E700BF5C
:10246C00B1230008900200202DE9F8430746884666
:10247C0014460026D4E90195B9F1010905D5246863
:10248C00002CF7D13046BDE8F883AB89012B07D976
:10249C00B5F90E30013303D029463846C047064300
:1024AC006835E9E70FB407B5064904AB086853F87B
:1024BC00042B8168019300F05DFB03B05DF804EB25
:1024CC0004B07047180000200EB46FF0004100B546
:1024DC009CB01DAB029006900791049108480949E5
:1024EC0053F8042B0591006802A9019300F01EFA21
:1024FC000022029B1A701CB05DF804EB03B070470D
:10250C00180000200802FFFF10B50C46B1F90E10A0
:10251C0000F068F80028ABBF636DA3891B1823F487
:10252C008053ACBF6365A38110BD2DE9F0411F46FC
:10253C008B890546DB050C46164605D50223002281
:10254C00B1F90E1000F03CF8A389324623F4805305
:10255C00A38128463B46B4F90E10BDE8F04100F0CB
:10256C0053B810B50C46B1F90E1000F029F8431C05
:10257C00A38915BF606523F4805343F48053A38172
:10258C0018BFA38110BDB1F90E1000F009B80346B5
:10259C000244934200D1704703F8011BF9E7000095
:1025AC0038B50023054D044608462B60FEF749FA62
:1025BC00431C02D12B6803B1236038BD9402002068
:1025CC0038B50446084611460022054D2A601A46C5
:1025DC00FEF75BFA431C02D12B6803B1236038BDB4
:1025EC009402002038B50446084611460022054DD9
:1025FC002A601A46FEF7ECF9431C02D12B6803B192
:10260C00236038BD9402002038B5044608461146B4
:10261C000022054D2A601A46FEF7F7F9431C02D139
:10262C002B6803B1236038BD94020020014B18685D
:10263C00704700BF1800002070B500260C4D0D4CE3
:10264C00641BA410A64209D100F07AFF00260A4DA3
:10265C000A4C641BA410A64205D170BD55F8043B6E
:10266C0098470136EEE755F8043B98470136F2E7F8
:10267C00D8350008D8350008D8350008DC350008F6
:10268C00704770477047000038B50546002940D0A8
:10269C0051F8043C0C1F002BB8BFE41800F0DEF816
:1026AC001C4A136833B9636014602846BDE838408F
:1026BC0000F0DAB8A34208D9206821188B4201BF78
:1026CC0019685B6809182160EDE71A465B680BB165
:1026DC00A342FAD911685018A0420BD120680144CA
:1026EC00501883421160E0D118685B680844106090
:1026FC005360DAE702D90C232B60D6E72068211847
:10270C008B4201BF19685B680918216063605460D3
:10271C00CBE738BDA002002070B50F4E0C463168D7
:10272C00054611B900F026FE30602146284600F01F
:10273C0021FE431C03D14FF0FF34204670BDC41C56
:10274C0024F00304A042F8D0211A284600F012FE0F
:10275C000130F2D1EFE700BF9C0200202DE9F843D5
:10276C00CD1C25F0030508350C2D38BF0C25002D8C
:10277C00064601DBA94204D90C2333600020BDE8D6
:10278C00F883DFF8D48000F069F8D8F800301C46E4
:10279C0044BB29463046FFF7BFFF431C044658D1C3
:1027AC00D8F800402746002F43D1002C4BD023688B
:1027BC003946304604EB030900F0DCFD814542D17B
:1027CC00216830466D1A2946FFF7A6FF01303AD032
:1027DC0023682B442360D8F800305A6862BBC8F8D1
:1027EC0000700FE02268521B20D40B2A17D96119F4
:1027FC00A342256018BF5960636808BFC8F8001071
:10280C0062514B60304600F02FF804F10B00231D91
:10281C0020F00700C21A1CBF1B1AA350AFE7626856
:10282C00A3420CBFC8F800205A60EBE7234664684B
:10283C00AEE73C467F68B6E71A465B68A342FBD11D
:10284C0000235360DEE70C233046336000F00CF8B5
:10285C0094E70560D6E700BFA00200200148FFF70F
:10286C0010BF00BF980200200148FFF70BBF00BF4C
:10287C00980200202DE9F0471F468E688246BE4222
:10288C000C4690460B682DD8B1F90C2012F4906FC1
:10289C0026D06569096905EB4505A3EB010905EB34
:1028AC00D5757B1C4B446D109D4238BF1D4653059E
:1028BC0027D52946FFF752FF064660B34A462169E1
:1028CC0000F076FDA38923F4906343F08003A38189
:1028DC0026614E4426603E466561A5EB0905A56060
:1028EC00BE4200D93E4632464146206800F028FDE3
:1028FC000020A3689B1BA360236833442360BDE8BE
:10290C00F0872A4600F062FD06460028E0D15046CA
:10291C002169FFF7B9FE0C23CAF80030A3894FF0E8
:10292C00FF3043F04003A381E9E700002DE9F04FAD
:10293C0098468B8907461B060D4614469DB010D54C
:10294C000B6973B94021FFF709FF2860286130B982
:10295C000C233B604FF0FF301DB0BDE8F08F4023DF
:10296C006B610023099320238DF8293030234FF01D
:10297C000109CDF80C80DFF898818DF82A302346B8
:10298C009A4613F8012B0AB1252AF9D1BAEB040B9C
:10299C000BD05B46224629463846FFF76BFF0130C9
:1029AC0000F0A780099A5A4409929AF80030002B3B
:1029BC0000F09F8000234FF0FF32CDE905230AF190
:1029CC00010A049307938DF853301A935446052249
:1029DC0014F8011B4E4800F0DDFC049AD8B9D0065F
:1029EC0044BF20238DF85330110744BF2B238DF89F
:1029FC0053309AF800302A2B15D0544600204FF053
:102A0C000A0C079A214611F8013B303B092B4BD994
:102A1C00B0B1079214E0A0EB080309FA03F31343D7
:102A2C00A2460493D2E7039B191D1B680391002B4C
:102A3C00BBBF5B4242F0020207930793B8BF0492FC
:102A4C0023782E2B0AD163782A2B32D1039B0234A4
:102A5C001A1D1B68039243EAE3730593DFF8B4A0D5
:102A6C0003225046217800F095FC38B14022049B9B
:102A7C00A0EB0A00824013430134049314F8011BA9
:102A8C00062225488DF8281000F084FC002836D04A
:102A9C00224B1BBB039B073323F007030833039321
:102AAC00099B334409936AE70C4601200CFB023264
:102ABC00A8E700234FF00A0C194601340593204671
:102ACC0010F8012B303A092A03D9002BC6D00591F6
:102ADC00C4E7044601230CFB0121F0E703AB009390
:102AEC002A4638460E4B04A9AFF30080421C06461A
:102AFC00D6D1AB895B063FF52DAF09982CE703AB1C
:102B0C0000932A463846064B04A900F0BDF9EDE7C0
:102B1C00A2350008A8350008AC35000800000000FC
:102B2C0081280008936810B4013B002B936007DAEE
:102B3C009469A34201DB0A2902D110BC00F06CBBE2
:102B4C001368581C10601970084610BC7047F8B513
:102B5C0006460F461446D518AC4201D1002007E0BA
:102B6C003A46304614F8011BFFF7DCFF431CF3D147
:102B7C00F8BD00002DE9F04F0D4614469846064668
:102B8C009DB018B1036A0BB9FFF756FC6B6ED907F1
:102B9C0005D4AB899A0502D4A86DFFF772FDAB89F9
:102BAC001B0701D52B699BB92946304600F072FBF7
:102BBC0070B16B6EDC0704D54FF0FF301DB0BDE873
:102BCC00F08FAB899805F7D4A86DFFF75BFDF3E7A1
:102BDC000023099320238DF8293030234FF001096D
:102BEC00CDF80C80DFF8A8818DF82A3023469A4660
:102BFC0013F8012B0AB1252AF9D1BAEB040B0BD02F
:102C0C005B46224629463046FFF7A1FF013000F013
:102C1C00A780099A5A4409929AF80030002B00F0C8
:102C2C009F8000234FF0FF32CDE905230AF1010A02
:102C3C00049307938DF853301A935446052214F8D5
:102C4C00011B534800F0A6FB049AD8B9D10644BF27
:102C5C0020238DF85330130744BF2B238DF85330AA
:102C6C009AF800302A2B15D0544600204FF00A0C4D
:102C7C00079A214611F8013B303B092B4BD9B0B1D7
:102C8C00079214E0A0EB080309FA03F31343A246DE
:102C9C000493D2E7039B191D1B680391002BBBBF48
:102CAC005B4242F0020207930793B8BF0492237869
:102CBC002E2B0AD163782A2B32D1039B02341A1D96
:102CCC001B68039243EAE3730593DFF8C8A0032261
:102CDC005046217800F05EFB38B14022049BA0EBFB
:102CEC000A00824013430134049314F8011B06229A
:102CFC0029488DF8281000F04DFB00283FD0274BB9
:102D0C001BBB039B073323F0070308330393099B77
:102D1C003B4409936AE70C4601200CFB0232A8E7FE
:102D2C0000234FF00A0C194601340593204610F885
:102D3C00012B303A092A03D9002BC6D00591C4E7E0
:102D4C00044601230CFB0121F0E703AB00932A4658
:102D5C003046134B04A9AFF300800746781CD6D13C
:102D6C006B6ED90705D4AB899A0502D4A86DFFF711
:102D7C0089FCAB895B063FF51FAF09981EE703ABD7
:102D8C0000932A463046064B04A900F07DF8E4E790
:102D9C00A2350008A8350008AC350008000000007A
:102DAC005B2B00082DE9F047164698468A680B699C
:102DBC0007469342B8BF1346336091F843200C4644
:102DCC00DDF820900AB1013333602368990642BFC5
:102DDC00336802333360256815F0060506D104F11B
:102DEC00190AE36832689B1AAB422BDC94F8433027
:102DFC002268003B18BF0123920630D44146384666
:102E0C0004F14302C847013023D02368226903F040
:102E1C000603042B14BF002533684FF0000608BFCF
:102E2C00E56804F11A0408BFED1A54F8123C08BF07
:102E3C0025EAE5759342C4BF9B1AED18B5421AD129
:102E4C00002008E00123524641463846C84701306D
:102E5C0003D14FF0FF30BDE8F0870135C1E73020DA
:102E6C00E11881F843005A1C94F8451022440233AF
:102E7C0082F84310C2E70123224641463846C84730
:102E8C000130E6D00136D9E72DE9FF470F7E914698
:102E9C00782F80460C469A460C9E01F1430207D8C7
:102EAC00622F0AD8002F00F0D380582F00F0BA8080
:102EBC0004F1420684F842703AE0A7F16303152B43
:102ECC00F6D801A151F823F02D2F0008412F00084E
:102EDC00BD2E0008BD2E0008BD2E0008BD2E00081A
:102EEC00412F0008BD2E0008BD2E0008BD2E000885
:102EFC00BD2E0008433000086B2F0008FD2F000882
:102F0C00BD2E0008BD2E000865300008BD2E00083F
:102F1C006B2F0008BD2E0008BD2E000805300008E0
:102F2C0033681A1D1B68326004F1420684F8423083
:102F3C0001239EE033682068191D3160060601D517
:102F4C001D6803E04506FBD5B3F90050002D03DAEC
:102F5C002D236D4284F843300A23594811E021682F
:102F6C003368080653F8045B02D4490648BFADB277
:102F7C006F2F336014BF0A2308235148002184F8B3
:102F8C0043106668002EA8BF2168A660A4BF21F07C
:102F9C00040121600DB9002E4BD01646B5FBF3F1A0
:102FAC0003FB1157C75D06F8017D2F46BB420D464A
:102FBC00F4D9082B0BD12368DF0708D52369616886
:102FCC009942DEBF302306F8013C06F1FF36921B16
:102FDC0022614B4621464046CDF800A003AAFFF7DC
:102FEC00E1FE01304AD14FF0FF3004B0BDE8F0876C
:102FFC00236843F0200323607827324884F8457017
:10300C00236831681F0651F8045B02D45F0648BF81
:10301C00ADB23160D90744BF43F0200323601DB12A
:10302C001023ABE72648E9E7236823F0200323604D
:10303C00F6E71646BDE733682568181D61693060F0
:10304C002E061B6801D5196002E06806FBD51980B5
:10305C00002316462361BCE7336800211A1D326039
:10306C001E686268304600F095F908B1801B6060FC
:10307C0063682361002384F84330AAE7324649464B
:10308C0040462369D0470130ADD023689B0713D449
:10309C00E068039B9842B8BF1846A6E70123324666
:1030AC0049464046D04701309DD00135E36803992D
:1030BC005B1AAB42F2DCEBE7002504F11906F5E7ED
:1030CC00B3350008C4350008B1F90C20F8B5160763
:1030DC0005460C4654D44B68002B02DC0B6C002BC1
:1030EC0048DDE66A002E45D0002312F480522F688A
:1030FC00216A2B6030D0626DA389590705D56368AE
:10310C00D21A636B0BB1236CD21A00232846E66AE1
:10311C00216AB047431CA38906D129681D292BD8E5
:10312C00284A0A41D60727D4002262602269D904B2
:10313C00226004D5421C01D12B6803B96065616B18
:10314C002F60B9B104F14403994202D02846FFF72D
:10315C009BFA002363630DE001232846B047024627
:10316C00501CC9D12B68002BC6D01D2B01D0162B9F
:10317C001DD12F60002021E043F040031BB21AE068
:10318C000F69002FF6D0930718BF00230E6808BFF5
:10319C004B69F61B0F608B60002EEBDD33463A4615
:1031AC002846216AD4F828C0E047002807DCB4F987
:1031BC000C3043F040034FF0FF30A381F8BD0744BF
:1031CC00361AE9E7FEFFBFDF38B50B6905460C463A
:1031DC0013B90025284638BD18B1036A0BB9FFF79F
:1031EC002BF9B4F90C30002BF3D0626ED00704D459
:1031FC00990502D4A06DFFF744FA28462146FFF743
:10320C0063FF636E0546DA07E4D4A3899B05E1D41A
:10321C00A06DFFF737FADDE7F8B50E461446054604
:10322C0018B1036A0BB9FFF707F9A369A360A38967
:10323C001A0701D5236943B92146284600F02AF81C
:10324C0018B14FF0FF373846F8BD23682269F6B243
:10325C00981A63693746834205DC21462846FFF7F6
:10326C00B3FF0028EDD1A368013BA36023685A1C6F
:10327C0022601E706269431C9A4204D0A389DB074A
:10328C00E1D50A2EDFD121462846FFF79DFF002805
:10329C00D9D0D6E738B5294B054618680C4618B175
:1032AC00036A0BB9FFF7C8F8B4F90C30190722D42C
:1032BC00DA0607D409222A6043F040034FF0FF30AE
:1032CC00A38133E0580712D5616B41B104F144037B
:1032DC00994202D02846FFF7D7F900236363A389EC
:1032EC0023F02403A3810023636023692360A38953
:1032FC0043F00803A38123694BB9A38903F420731A
:10330C00B3F5007F03D02146284600F0B2F8B4F99B
:10331C000C3013F001020AD00022A2606269524202
:10332C00A261226942B913F08000C5D138BD99075A
:10333C0058BF6269A260F4E70020F7E7180000208C
:10334C00884210B501EB020402D98442234607D807
:10335C00431EA14208D011F8012B03F8012FF8E706
:10336C00014602448A4200D110BD13F8014D02F807
:10337C00014DF7E738B50023054D044608462B6090
:10338C00FDF790FB431C02D12B6803B1236038BDC1
:10339C0094020020034610B5C9B202449342184669
:1033AC0001D1002003E0047801338C42F6D110BD2A
:1033BC000A44914200F1FF3300D1704710B511F867
:1033CC00014B914203F8014FF9D110BD2DE9F041A9
:1033DC00804615460C4621B91146BDE8F041FFF771
:1033EC00BDB92AB9FFF750F900242046BDE8F08199
:1033FC0000F09EF88542064602D8B5EB500FF4D883
:10340C0029464046FFF7AAF907460028ECD0B542FA
:10341C002A46214628BF3246FFF7CAFF21464046BE
:10342C00FFF732F93C46E0E770B50C46B1F90E10E7
:10343C00154600291E4696B00CDAA389002113F01C
:10344C00800F14BF40234FF48063002031602B6049
:10345C0016B070BD6A4600F049F80028EDDB019902
:10346C0001F47041A1F50053594259414FF4806366
:10347C00EBE78B89F7B59D0706460C4607D504F19B
:10348C004703236023610123636103B0F0BD6A46E7
:10349C0001ABFFF7C9FF009F054639463046FFF7E1
:1034AC005DF948B9B4F90C309A05EED423F0030356
:1034BC0043F00203A381E2E7A389C4E9040743F0C4
:1034CC008003A381019B20605BB13046B4F90E10E0
:1034DC0000F01EF828B1A38923F0030343F0010385
:1034EC00A381A3891D43A581CFE7000038B5002334
:1034FC00064D0446084611462B60FDF7ADFA431CF9
:10350C0002D12B6803B1236038BD00BF94020020A8
:10351C0038B50023054D044608462B60FDF7ABFA81
:10352C00431C02D12B6803B1236038BD94020020E8
:10353C0051F8043C181F002BBCBF0B58C018704727
:10354C00F8B500BFF8BC08BC9E467047F8B500BF84
:08355C00F8BC08BC9E46704754
:1035640054656D70657261747572653A20256400E6
:1035740025730000000000000000000001020304A5
:103584000607080900000000010203040203040501
:10359400060708090A0B0C0D0E0F10100102232D4B
:1035A400302B2000686C4C00656667454647003048
:1035B4003132333435363738394142434445460095
:1035C4003031323334353637383961626364656695
:0435D40000000000F3
:0435D80031010008B5
:0435DC000D010008D5
:1035E00000127A001000000001000000000000003E
:1035F00003000000580100201C0000200000000013
:1036000058010020C0010020280200200000000016
:1036100000000000000000000000000000000000AA
:10362000000000000000000000000000000000009A
:10363000000000000000000000000000000000008A
:08364000000000000000000082
:0400000508000B29BB
:00000001FF
